:020000040000fa
:080000000002040000000000f2
:020000040000fa
:0400080004030000ed
:020000040000fa
:04000c00c802000026
:020000040000fa
:04001000ce0200001c
:020000040000fa
:04001400d402000012
:020000040000fa
:04001800da02000008
:020000040000fa
:04001c00e0020000fe
:020000040000fa
:0400200004030000d5
:020000040000fa
:0400240004030000d1
:020000040000fa
:0400280004030000cd
:020000040000fa
:04002c0004030000c9
:020000040000fa
:0400300004030000c5
:020000040000fa
:0400340004030000c1
:020000040000fa
:0400380004030000bd
:020000040000fa
:04003c0004030000b9
:020000040000fa
:0400400004030000b5
:020000040000fa
:0400440004030000b1
:020000040000fa
:0400480004030000ad
:020000040000fa
:04004c0004030000a9
:020000040000fa
:0400500004030000a5
:020000040000fa
:0400540004030000a1
:020000040000fa
:04005800040300009d
:020000040000fa
:04005c000403000099
:020000040000fa
:040060000403000095
:020000040000fa
:040064000403000091
:020000040000fa
:04006800040300008d
:020000040000fa
:04006c000403000089
:020000040000fa
:040070000403000085
:020000040000fa
:040074000403000081
:020000040000fa
:04007800040300007d
:020000040000fa
:04007c000403000079
:020000040000fa
:040080000403000075
:020000040000fa
:040084000403000071
:020000040000fa
:04008800040300006d
:020000040000fa
:04008c000403000069
:020000040000fa
:040090000403000065
:020000040000fa
:040094000403000061
:020000040000fa
:04009800040300005d
:020000040000fa
:04009c000403000059
:020000040000fa
:0400a0000403000055
:020000040000fa
:0400a4000403000051
:020000040000fa
:0400a800040300004d
:020000040000fa
:0400ac000403000049
:020000040000fa
:0400b0000403000045
:020000040000fa
:0400b4000403000041
:020000040000fa
:0400b800040300003d
:020000040000fa
:0400bc000403000039
:020000040000fa
:0400c0000403000035
:020000040000fa
:0400c4000403000031
:020000040000fa
:0400c800040300002d
:020000040000fa
:0400cc000403000029
:020000040000fa
:0400d0000403000025
:020000040000fa
:0400d4000403000021
:020000040000fa
:0400d800040300001d
:020000040000fa
:0400dc000403000019
:020000040000fa
:0400e0000403000015
:020000040000fa
:0400e4000403000011
:020000040000fa
:0400e800040300000d
:020000040000fa
:0400ec000403000009
:020000040000fa
:0400f0000403000005
:020000040000fa
:0400f4000403000001
:020000040000fa
:0400f80004030000fd
:020000040000fa
:0400fc0004030000f9
:020000040000fa
:0401000004030000f4
:020000040000fa
:0401040004030000f0
:020000040000fa
:0401080004030000ec
:020000040000fa
:04010c0004030000e8
:020000040000fa
:0401100004030000e4
:020000040000fa
:0401140004030000e0
:020000040000fa
:0401180004030000dc
:020000040000fa
:04011c0004030000d8
:020000040000fa
:0401200004030000d4
:020000040000fa
:0401240004030000d0
:020000040000fa
:0401280004030000cc
:020000040000fa
:04012c0004030000c8
:020000040000fa
:0401300004030000c4
:020000040000fa
:0401340004030000c0
:020000040000fa
:0401380004030000bc
:020000040000fa
:04013c0004030000b8
:020000040000fa
:0401400004030000b4
:020000040000fa
:0401440004030000b0
:020000040000fa
:0401480004030000ac
:020000040000fa
:04014c0004030000a8
:020000040000fa
:0401500004030000a4
:020000040000fa
:0401540004030000a0
:020000040000fa
:04015800040300009c
:020000040000fa
:04015c000403000098
:020000040000fa
:040160000403000094
:020000040000fa
:040164000403000090
:020000040000fa
:0402080004030000eb
:020000040000fa
:04020c00e602000006
:020000040000fa
:04021000ec020000fc
:020000040000fa
:04021400f2020000f2
:020000040000fa
:04021800f8020000e8
:020000040000fa
:04021c00fe020000de
:020000040000fa
:0402200004030000d3
:020000040000fa
:0402240004030000cf
:020000040000fa
:0402280004030000cb
:020000040000fa
:04022c0004030000c7
:020000040000fa
:0402300004030000c3
:020000040000fa
:0402340004030000bf
:020000040000fa
:0402380004030000bb
:020000040000fa
:04023c0004030000b7
:020000040000fa
:0402400004030000b3
:020000040000fa
:0402440004030000af
:020000040000fa
:0402480004030000ab
:020000040000fa
:04024c0004030000a7
:020000040000fa
:0402500004030000a3
:020000040000fa
:04025400040300009f
:020000040000fa
:04025800040300009b
:020000040000fa
:04025c000403000097
:020000040000fa
:040260000403000093
:020000040000fa
:04026400040300008f
:020000040000fa
:04026800040300008b
:020000040000fa
:04026c000403000087
:020000040000fa
:040270000403000083
:020000040000fa
:04027400040300007f
:020000040000fa
:04027800040300007b
:020000040000fa
:04027c000403000077
:020000040000fa
:040280000403000073
:020000040000fa
:04028400040300006f
:020000040000fa
:04028800040300006b
:020000040000fa
:04028c000403000067
:020000040000fa
:040290000403000063
:020000040000fa
:04029400040300005f
:020000040000fa
:04029800040300005b
:020000040000fa
:04029c000403000057
:020000040000fa
:0402a0000403000053
:020000040000fa
:0402a400040300004f
:020000040000fa
:0402a800040300004b
:020000040000fa
:0402ac000403000047
:020000040000fa
:0402b0000403000043
:020000040000fa
:0402b400040300003f
:020000040000fa
:0402b800040300003b
:020000040000fa
:0402bc000403000037
:020000040000fa
:0402c0000403000033
:020000040000fa
:0402c400040300002f
:020000040000fa
:0402c800040300002b
:020000040000fa
:0402cc000403000027
:020000040000fa
:0402d0000403000023
:020000040000fa
:0402d400040300001f
:020000040000fa
:0402d800040300001b
:020000040000fa
:0402dc000403000017
:020000040000fa
:0402e0000403000013
:020000040000fa
:0402e400040300000f
:020000040000fa
:0402e800040300000b
:020000040000fa
:0402ec000403000007
:020000040000fa
:0402f0000403000003
:020000040000fa
:0402f40004030000ff
:020000040000fa
:0402f80004030000fb
:020000040000fa
:0402fc0004030000f7
:020000040000fa
:0403000004030000f2
:020000040000fa
:0403040004030000ee
:020000040000fa
:0403080004030000ea
:020000040000fa
:04030c0004030000e6
:020000040000fa
:0403100004030000e2
:020000040000fa
:0403140004030000de
:020000040000fa
:0403180004030000da
:020000040000fa
:04031c0004030000d6
:020000040000fa
:0403200004030000d2
:020000040000fa
:0403240004030000ce
:020000040000fa
:0403280004030000ca
:020000040000fa
:04032c0004030000c6
:020000040000fa
:0403300004030000c2
:020000040000fa
:0403340004030000be
:020000040000fa
:0403380004030000ba
:020000040000fa
:04033c0004030000b6
:020000040000fa
:0403400004030000b2
:020000040000fa
:0403440004030000ae
:020000040000fa
:0403480004030000aa
:020000040000fa
:04034c0004030000a6
:020000040000fa
:0403500004030000a2
:020000040000fa
:04035400040300009e
:020000040000fa
:04035800040300009a
:020000040000fa
:04035c000403000096
:020000040000fa
:040360000403000092
:020000040000fa
:04036400040300008e
:020000040000fa
:100400000f8020000e7f24000e01880000000000f5
:10041000000020000000e000020032000001200087
:100420002002880014000700790007000000e000a7
:1004300003003a0000002000010020000200370005
:100440000000200001002000810f70000100320038
:1004500014000700000020000000e000020032004d
:1004600000000200000000009a06020000000000e8
:100470000040da000000fe004440a9000000200017
:100480000000e0000300320000002000a00188000e
:100490004440a800000006008a1f78008b1f7800e7
:1004a0000000060091018800800478000000eb0045
:1004b0001a003700e284440032a0b4009905ba0063
:1004c000e284440032a0b4009906ba00e2844400f9
:1004d00032a0b4000006eb00476fde00fd07b2005b
:1004e000636ce10003003a00ebff07000000eb0043
:1004f0000a003700606ce10004003a00005deb0088
:100500008b05e900fdff3e00040037006168e10053
:10051000010032000086eb000b00070019c7ba008b
:100520001905ba000e04e00003003a000a00e000da
:10053000e0ff3a0000000600fe07b2009e018800be
:100540008a047800f5ff3700395dba008b05e900b1
:100550000c003200295dba008b05e900080032006a
:100560000c00e00003003a00e284440032a0b40032
:10057000f5ff370019ddba008b05e900faff3a00f4
:100580008904e800e184440032a0b40000000600c1
:100590000000fa008020a900ffff37000000fa00e9
:1005a0008060a900ffff37000000fa008040a9002a
:1005b000ffff37000000fa008080a900ffff37002e
:1005c0000000fa0080a0a900ffff37000000fa0039
:1005d0008020a900ffff37000000fa008060a9001a
:1005e000ffff37000000fa008040a900ffff37003e
:1005f0000000fa008080a900ffff37000000fa0029
:1006000080a0a900ffff37000000fa00ffff3700bd
:100610000000050003f0a200889fbe008a9fbe0074
:100620008c1f7800fa000700010133006450e100dc
:100630004f0032006420e1005200320003826c005f
:1006400007003b000905d0000306d000820f5400cc
:100650000c065d00020039000200320089017800ba
:10066000030678008582550004003d000003fd006c
:100670008103fd008502ea008b854200840f720031
:1006800002003b0060001000e08018006011b8001c
:100690000005eb007a28e1000a0039000600780026
:1006a000c75ddd00f707b200878075002d003700b9
:1006b000828171000a017800610560008180d100ab
:1006c0000080d3008502e900f9ff3b0006044000ea
:1006d0008784480002003b0060041400e0841c0092
:1006e0000988a300070032008a81710082817100ad
:1006f000610164008904d1000884d3008b05e800ff
:10070000170037000978a30013003a000b00e0003f
:10071000130034008b05e9000804440089844c0070
:100720000a4474000978a3000d003a000b00e000b1
:10073000070034008b05e9000804440089844c005c
:1007400001003a000b0020000978a300f7ff3200f7
:100750000001eb0002003700828171000a0178007d
:10076000700007000cf0a70001f0a000b9003700ee
:100770006420e10002003a00838f6c00b90033006e
:100780000801be000200be00b2003700889fbe0014
:100790008a9fbe008c1f78009d000700a4003300d4
:1007a00003866c006450e1002e0032006420e100fa
:1007b000330032006150e1002f0032006120e1007f
:1007c0003100320085855500eb07b000090020009c
:1007d00008042000050037000804440089844c0008
:1007e0000a0031000603430087834b0000015300d9
:1007f00081815b00f8ff33000203be000800a00007
:100800000804440089844c00f6ff3900c639dd0035
:100810008301730001003200130020008904d1001d
:100820000884d3000998a300050032000800a7003f
:100830000300a0008904d1000884d3008b05e800e0
:100840008904d1000884d3000001eb000281d200aa
:100850003400070001f0a1000cf0a70001f0a00097
:100860007c0037006420e1007e0032000801be00f9
:100870000200be00f7ff37006120e100790032007e
:100880006000b800f3ff37000000200001f82700e7
:10089000f0ff37000001be00480007000470a70009
:1008a00003f0a1006509b100160032000d0035000b
:1008b0006828e10006003500f0ff2f00f1ff270057
:1008c0000300e00013003b000100280000000500c9
:1008d00000004000818048008502e900fcff3a00ea
:1008e00008003700f88f420002003c008000eb0057
:1008f000000005008100d1000080d3008502e800df
:10090000fcff3a000300e00002003b006000100022
:10091000e0801800000006004f89de0082017800a8
:100920008700370081002000618055000b003d00ea
:100930000b00200061fe2f000100e1001d003400cb
:1009400082817100610164008904d1000884d300b0
:100950000000e800faff3a00710020006100640026
:1009600003007000020060000900320061044400ce
:10097000e0844c000988a500050032008b05e800e2
:100980006808e10002003a008904d1000884d3001d
:10099000f20f20000258e10005003d00c75ddd00b8
:1009a000f907b20089807500080078000000060091
:1009b0000bf827008b00780000000500c70ade0056
:1009c000f107b200f50fb20008003200e1cf42009b
:1009d000020032000170a00024000500810f7000a9
:1009e000010032000408050044000500810f70007a
:1009f00002003a00140005008502e90000004000f2
:100a000081c04800fcff3b000170a00024000500ed
:100a10000004be00e9ff07000003be000405be009d
:100a20000200be00e5ff0700844f750000000600cd
:100a30000200be006450e100050036006420e100c1
:100a4000020036000968a30001003a000800be0059
:100a50000160a0004f0678004f05be004f04be00a5
:100a600000000600f0ff2f00f1ff2700f9ff37001c
:100a7000889fbe008a9fbe008c1f7800e4ff07009d
:100a8000ebff330003866c006450e1002400320069
:100a90006420e100270032006150e10022003200b2
:100aa0006120e100210032008b854200eb07b1009c
:100ab0000134b800003ab8000804420089844a00b2
:100ac000013ab8000030b8008880400009014a00af
:100ad000040033000000400081804800020149000a
:100ae0008b05e900c909dd008301700001003200b7
:100af00013002000c814de004814dd004709de00a2
:100b00001200b200c808de000884700085ff0700ec
:100b100001f0a1000cf0a70001f0a000cdff37000c
:100b20006120e100cfff32000801be000200be00dc
:100b3000f7ff37006150e100fcff3a00c9ff3700c2
:100b4000881f7800030478000300e00007003d00e0
:100b500060001000e080180060011900e0811900b9
:100b600002003b0001f02d000300370004000700e5
:100b700008f0a70001f0a0004f0478000000060074
:100b8000889fbe008a9fbe00008270000402710030
:100b900004827100260032000004be000200be0084
:100ba0006011b8006b092000950220000182cf007f
:100bb0000a0039000541b1000082cf00070039006a
:100bc0000541b1000982cf00040039000541b100a0
:100bd0000882cf00010039000541b10005425200f2
:100be000120032000a003b00828171006101640042
:100bf0008100d1000080d3008984d3000884d30011
:100c00008b05e8000442e800f7ff3a0007003700d0
:100c10000804440089844c0000004800818048009a
:100c20008b05e9000442e900f9ff3a003dff0700a7
:0c0c30004f05be004f04be00000006008f
:020000040000fa
:100c3c000a00fa00300798004107980002002000d3
:100c4c00a34f24003e009000ce00900085ff0700cb
:100c5c0082fd200093042400c9fe0700008fbe0013
:100c6c00a2702d00b30e24001e00be007dff0700f5
:100c7c000200200003f8230063fe070002ff0700b8
:100c8c0000007800cf80de0020ff07000200250066
:100c9c00635624005dfe0700fbfe0700200798004a
:100cac002e0090000080fa00000006000800fa00f8
:100cbc00300798003e009000cf80de0013ff070045
:100ccc0002002000a34f240066ff07000200200052
:100cdc0043332400aafe0700008fbe00a2702d0033
:100cec00b30e24001e00be005eff070002002000b1
:100cfc0003f8230044fe0700e3fe07000000780021
:100d0c00cf80de0001ff070002002500635624009f
:100d1c003efe0700dcfe0700200798002e00900026
:100d2c000080fa00000006000000fa001b0007001b
:100d3c0060e5200091042400bdff0700b00e880080
:100d4c00b00e8000200e880080a8230081032000b4
:100d5c0027000700b0fd200091fc2300b4ff070022
:100d6c00b00e8800b00e8000200e880080a82300f2
:100d7c00810320001e0007006000b800acff0700d4
:100d8c00b00e8800b00e8000200e880080a82300d2
:100d9c008103200016000700e5ff37000000fa0071
:100dac00c9e2a900c9c2a900010e800030ff2f00c2
:100dbc0000806000000e8800010e8000c0ff2f0034
:100dcc0000806000000e880040e62000200e8800a5
:100ddc00c801a800c901a90040e62000b00e880097
:100dec00c881a800c1e1a8000080fa00000006003c
:020000040000fa
:100dfc00f03fb1000180b10006003500ee030900a0
:100e0c0000000000403fb1000180b100fbff3d003d
:100e1c001000b000203fb000020035000080090037
:080e2c000000000000000600b8
:020000040000fa
:0c0e34000000fa000080fa000000060038
:020000040000fa
:0200000401f009
:04000000ffff0000fe
:020000040000fa
:0200000401f009
:04000400ffff0000fa
:020000040000fa
:0200000401f009
:04000800ffff0000f6
:020000040000fa
:0200000401f009
:04000c008700000069
:020000040000fa
:0200000401f009
:04001000a700000045
:020000040000fa
:0200000401f009
:04001400df00000009
:020000040000fa
:0200000401f009
:04001800f7000000ed
:020000040000fa
:0200000401f009
:04001c00dfff000002
:00000001FF
