:020000040000fa
:080000000002040000000000f2
:020000040000fa
:0400080004030000ed
:020000040000fa
:04000c00c802000026
:020000040000fa
:04001000ce0200001c
:020000040000fa
:04001400d402000012
:020000040000fa
:04001800da02000008
:020000040000fa
:04001c00e0020000fe
:020000040000fa
:0400200004030000d5
:020000040000fa
:0400240004030000d1
:020000040000fa
:0400280004030000cd
:020000040000fa
:04002c0004030000c9
:020000040000fa
:0400300004030000c5
:020000040000fa
:0400340004030000c1
:020000040000fa
:0400380004030000bd
:020000040000fa
:04003c0004030000b9
:020000040000fa
:0400400004030000b5
:020000040000fa
:0400440004030000b1
:020000040000fa
:0400480004030000ad
:020000040000fa
:04004c0004030000a9
:020000040000fa
:0400500004030000a5
:020000040000fa
:0400540004030000a1
:020000040000fa
:04005800040300009d
:020000040000fa
:04005c000403000099
:020000040000fa
:040060000403000095
:020000040000fa
:040064000403000091
:020000040000fa
:04006800040300008d
:020000040000fa
:04006c000403000089
:020000040000fa
:040070000403000085
:020000040000fa
:040074000403000081
:020000040000fa
:04007800040300007d
:020000040000fa
:04007c000403000079
:020000040000fa
:040080000403000075
:020000040000fa
:040084000403000071
:020000040000fa
:04008800040300006d
:020000040000fa
:04008c000403000069
:020000040000fa
:040090000403000065
:020000040000fa
:040094000403000061
:020000040000fa
:04009800040300005d
:020000040000fa
:04009c000403000059
:020000040000fa
:0400a0000403000055
:020000040000fa
:0400a4000403000051
:020000040000fa
:0400a800040300004d
:020000040000fa
:0400ac000403000049
:020000040000fa
:0400b0000403000045
:020000040000fa
:0400b4000403000041
:020000040000fa
:0400b800040300003d
:020000040000fa
:0400bc000403000039
:020000040000fa
:0400c0000403000035
:020000040000fa
:0400c4000403000031
:020000040000fa
:0400c800040300002d
:020000040000fa
:0400cc000403000029
:020000040000fa
:0400d0000403000025
:020000040000fa
:0400d4000403000021
:020000040000fa
:0400d800040300001d
:020000040000fa
:0400dc000403000019
:020000040000fa
:0400e0000403000015
:020000040000fa
:0400e4000403000011
:020000040000fa
:0400e800040300000d
:020000040000fa
:0400ec000403000009
:020000040000fa
:0400f0000403000005
:020000040000fa
:0400f4000403000001
:020000040000fa
:0400f80004030000fd
:020000040000fa
:0400fc0004030000f9
:020000040000fa
:0401000004030000f4
:020000040000fa
:0401040004030000f0
:020000040000fa
:0401080004030000ec
:020000040000fa
:04010c0004030000e8
:020000040000fa
:0401100004030000e4
:020000040000fa
:0401140004030000e0
:020000040000fa
:0401180004030000dc
:020000040000fa
:04011c0004030000d8
:020000040000fa
:0401200004030000d4
:020000040000fa
:0401240004030000d0
:020000040000fa
:0401280004030000cc
:020000040000fa
:04012c0004030000c8
:020000040000fa
:0401300004030000c4
:020000040000fa
:0401340004030000c0
:020000040000fa
:0401380004030000bc
:020000040000fa
:04013c0004030000b8
:020000040000fa
:0401400004030000b4
:020000040000fa
:0401440004030000b0
:020000040000fa
:0401480004030000ac
:020000040000fa
:04014c0004030000a8
:020000040000fa
:0401500004030000a4
:020000040000fa
:0401540004030000a0
:020000040000fa
:04015800040300009c
:020000040000fa
:04015c000403000098
:020000040000fa
:040160000403000094
:020000040000fa
:040164000403000090
:020000040000fa
:0402080004030000eb
:020000040000fa
:04020c00e602000006
:020000040000fa
:04021000ec020000fc
:020000040000fa
:04021400f2020000f2
:020000040000fa
:04021800f8020000e8
:020000040000fa
:04021c00fe020000de
:020000040000fa
:0402200004030000d3
:020000040000fa
:0402240004030000cf
:020000040000fa
:0402280004030000cb
:020000040000fa
:04022c0004030000c7
:020000040000fa
:0402300004030000c3
:020000040000fa
:0402340004030000bf
:020000040000fa
:0402380004030000bb
:020000040000fa
:04023c0004030000b7
:020000040000fa
:0402400004030000b3
:020000040000fa
:0402440004030000af
:020000040000fa
:0402480004030000ab
:020000040000fa
:04024c0004030000a7
:020000040000fa
:0402500004030000a3
:020000040000fa
:04025400040300009f
:020000040000fa
:04025800040300009b
:020000040000fa
:04025c000403000097
:020000040000fa
:040260000403000093
:020000040000fa
:04026400040300008f
:020000040000fa
:04026800040300008b
:020000040000fa
:04026c000403000087
:020000040000fa
:040270000403000083
:020000040000fa
:04027400040300007f
:020000040000fa
:04027800040300007b
:020000040000fa
:04027c000403000077
:020000040000fa
:040280000403000073
:020000040000fa
:04028400040300006f
:020000040000fa
:04028800040300006b
:020000040000fa
:04028c000403000067
:020000040000fa
:040290000403000063
:020000040000fa
:04029400040300005f
:020000040000fa
:04029800040300005b
:020000040000fa
:04029c000403000057
:020000040000fa
:0402a0000403000053
:020000040000fa
:0402a400040300004f
:020000040000fa
:0402a800040300004b
:020000040000fa
:0402ac000403000047
:020000040000fa
:0402b0000403000043
:020000040000fa
:0402b400040300003f
:020000040000fa
:0402b800040300003b
:020000040000fa
:0402bc000403000037
:020000040000fa
:0402c0000403000033
:020000040000fa
:0402c400040300002f
:020000040000fa
:0402c800040300002b
:020000040000fa
:0402cc000403000027
:020000040000fa
:0402d0000403000023
:020000040000fa
:0402d400040300001f
:020000040000fa
:0402d800040300001b
:020000040000fa
:0402dc000403000017
:020000040000fa
:0402e0000403000013
:020000040000fa
:0402e400040300000f
:020000040000fa
:0402e800040300000b
:020000040000fa
:0402ec000403000007
:020000040000fa
:0402f0000403000003
:020000040000fa
:0402f40004030000ff
:020000040000fa
:0402f80004030000fb
:020000040000fa
:0402fc0004030000f7
:020000040000fa
:0403000004030000f2
:020000040000fa
:0403040004030000ee
:020000040000fa
:0403080004030000ea
:020000040000fa
:04030c0004030000e6
:020000040000fa
:0403100004030000e2
:020000040000fa
:0403140004030000de
:020000040000fa
:0403180004030000da
:020000040000fa
:04031c0004030000d6
:020000040000fa
:0403200004030000d2
:020000040000fa
:0403240004030000ce
:020000040000fa
:0403280004030000ca
:020000040000fa
:04032c0004030000c6
:020000040000fa
:0403300004030000c2
:020000040000fa
:0403340004030000be
:020000040000fa
:0403380004030000ba
:020000040000fa
:04033c0004030000b6
:020000040000fa
:0403400004030000b2
:020000040000fa
:0403440004030000ae
:020000040000fa
:0403480004030000aa
:020000040000fa
:04034c0004030000a6
:020000040000fa
:0403500004030000a2
:020000040000fa
:04035400040300009e
:020000040000fa
:04035800040300009a
:020000040000fa
:04035c000403000096
:020000040000fa
:040360000403000092
:020000040000fa
:04036400040300008e
:020000040000fa
:100400002f8020000e7f24000e01880000000000d5
:10041000000020000000e000020032000001200087
:100420002002880014000700790007000000e000a7
:1004300003003a00a08f20000100200002003700d6
:100440000000200001002000810f70000100320038
:1004500014000700000020000000e000020032004d
:1004600000000200000000005c0802000000000024
:100470000040da000000fe004440a9000000200017
:100480000000e0000300320000002000a00188000e
:100490004440a800000006008a1f78008b1f7800e7
:1004a0000000060091018800800478000000eb0045
:1004b0001a003700e284440032a0b4009905ba0063
:1004c000e284440032a0b4009906ba00e2844400f9
:1004d00032a0b4000006eb00476fde00fd07b2005b
:1004e000636ce10003003a00ebff07000000eb0043
:1004f0000a003700606ce10004003a00005deb0088
:100500008b05e900fdff3e00040037006168e10053
:10051000010032000086eb000b00070019c7ba008b
:100520001905ba000e04e00003003a000a00e000da
:10053000e0ff3a0000000600fe07b2009e018800be
:100540008a047800f5ff3700395dba008b05e900b1
:100550000c003200295dba008b05e900080032006a
:100560000c00e00003003a00e284440032a0b40032
:10057000f5ff370019ddba008b05e900faff3a00f4
:100580008904e800e184440032a0b40000000600c1
:100590000000fa008020a900ffff37000000fa00e9
:1005a0008060a900ffff37000000fa008040a9002a
:1005b000ffff37000000fa008080a900ffff37002e
:1005c0000000fa0080a0a900ffff37000000fa0039
:1005d0008020a900ffff37000000fa008060a9001a
:1005e000ffff37000000fa008040a900ffff37003e
:1005f0000000fa008080a900ffff37000000fa0029
:1006000080a0a900ffff37000000fa00ffff3700bd
:100610000000050003f0a200889fbe008a9fbe0074
:100620008c1f780000010700070133006450e100cf
:100630004f0032006420e1005200320003826c005f
:1006400007003b000905d0000306d000820f5400cc
:100650000c065d00020039000200320089017800ba
:10066000030678008582550004003d000003fd006c
:100670008103fd008502ea008b854200840f720031
:1006800002003b0060001000e08018006011b8001c
:100690000005eb007a28e1000a0039000600780026
:1006a000c75ddd00f707b200878075002d003700b9
:1006b000828171000a017800610560008180d100ab
:1006c0000080d3008502e900f9ff3b0006044000ea
:1006d0008784480002003b0060041400e0841c0092
:1006e0000988a300070032008a81710082817100ad
:1006f000610164008904d1000884d3008b05e800ff
:10070000170037000978a30013003a000b00e0003f
:10071000130034008b05e9000804440089844c0070
:100720000a4474000978a3000d003a000b00e000b1
:10073000070034008b05e9000804440089844c005c
:1007400001003a000b0020000978a300f7ff3200f7
:100750000001eb0002003700828171000a0178007d
:10076000760007000cf0a70001f0a000bf003700e2
:100770006420e10002003a00838f6c00bf00330068
:100780000801be000200be00b8003700889fbe000e
:100790008a9fbe008c1f7800a3000700aa003300c8
:1007a00003866c006450e1002e0032006420e100fa
:1007b000330032006150e1002f0032006120e1007f
:1007c0003100320085855500eb07b000090020009c
:1007d00008042000050037000804440089844c0008
:1007e0000a0031000603430087834b0000015300d9
:1007f00081815b00f8ff33000203be000800a00007
:100800000804440089844c00f6ff3900c639dd0035
:100810008301730001003200130020008904d1001d
:100820000884d3000998a300050032000800a7003f
:100830000300a0008904d1000884d3008b05e800e0
:100840008904d1000884d3000001eb000281d200aa
:100850003a00070001f0a1000cf0a70001f0a00091
:10086000820037006420e100840032000801be00ed
:100870000200be00f7ff37006120e1007f00320078
:100880006000b800f3ff37000000200001f82700e7
:10089000f0ff370014002000af003700f4ff2f00f6
:1008a000ad0037000001be004a0007000470a70039
:1008b00003f0a1006509b100160032000d003500fb
:1008c0006828e10006003500f0ff2f00f1ff270047
:1008d0000300e00013003b000100280000000500b9
:1008e00000004000818048008502e900fcff3a00da
:1008f00008003700f88f420002003c008000eb0047
:10090000000005008100d1000080d3008502e800ce
:10091000fcff3a000300e00002003b006000100012
:10092000e0801800000006004f89de008201780098
:10093000a40037006011b800b20037008100200029
:10094000618055000b003d000b00200061fe2f0070
:100950000100e1001d00340082817100610164002a
:100960008904d1000884d3000000e800faff3a00af
:10097000710020006100640003007000020060004c
:100980000900320061044400e0844c000988a5009d
:10099000050032008b05e8006808e10002003a001b
:1009a0008904d1000884d300f20f20000258e1002e
:1009b00005003d00c75ddd00f907b20089807500c4
:1009c00008007800000006000bf827008b00780074
:1009d00000000500c70ade00f107b200f50fb20003
:1009e00008003200e1cf4200020032000170a00096
:1009f00024000500810f700001003200040805008a
:100a000044000500810f700002003a001400050048
:100a10008502e9000000400081c04800fcff3b0067
:100a20000170a000240005000004be00e9ff0700db
:100a30000003be000405be000200be00e5ff070083
:100a4000844f7500000006000200be006450e10003
:100a5000050036006420e100020036000968a300aa
:100a600001003a000800be000160a0004f067800b7
:100a70004f05be004f04be0000000600f0ff2f002f
:100a8000f1ff2700f9ff3700889fbe008a9fbe0054
:100a90008c1f7800e4ff0700ebff330003866c0037
:100aa0006450e100240032006420e100270032009d
:100ab0006150e100220032006120e100210032009b
:100ac0008b854200eb07b1000134b800003ab80052
:100ad0000804420089844a00013ab8000030b80096
:100ae0008880400009014a000400330000004000f3
:100af00081804800020149008b05e900c909dd0039
:100b0000830170000100320013002000c814de00d1
:100b10004814dd004709de001200b200c808de00fc
:100b20000884700085ff070001f0a1000cf0a70009
:100b300001f0a000cdff37006120e100cfff3200bf
:100b40000801be000200be00f7ff37006150e1005f
:100b5000fcff3a00c9ff3700889fbe008a9fbe0095
:100b6000841f7800b0ff07004f00780011003300a9
:100b7000f0ff2f00838f6c0006003b00040565002a
:100b80000a00a7000800370009f0a60010002000a6
:100b900008003700820f5400838f5c000300390087
:100ba0001000200001003e000000200009f0a70016
:100bb0000000ea004f05be004f04be000000e00048
:100bc00000000600881f7800030478000300e0009e
:100bd00007003d0060001000e0801800600119006f
:100be000e081190002003b0001f02d0003003700f6
:100bf0000400070008f0a70001f0a0004f047800ef
:100c000000000600889fbe008a9fbe000082700020
:100c10000402710004827100260032000004be004c
:100c20000200be006011b8006b0920009502200090
:100c30000182cf000a0039000541b1000082cf00d7
:100c4000070039000541b1000982cf0004003900d6
:100c50000541b1000882cf00010039000541b10013
:100c600005425200120032000a003b0082817100ee
:100c7000610164008100d1000080d3008984d30029
:100c80000884d3008b05e8000442e800f7ff3a002f
:100c9000070037000804440089844c000000480025
:100ca000818048008b05e9000442e900f9ff3a0021
:100cb00022ff07004f05be004f04be0000000600e3
:020000040000fa
:100cc0000000fa002023a8000000000000198000a6
:100cd000610060000000e000fcff320000188000ae
:100ce0000080fa00000006001600fa00881f780055
:100cf000100f9800210f980018c0b3006011b800c1
:100d00001e089000ae089000e2fe07000000e00020
:100d1000010035000044eb000804e0001c00320034
:100d200002002000a34f24001e089000ae0890008f
:100d300055ff070082fd20009304240093fe070066
:100d400001f0a200008fbe00a2702d00b30e24009f
:100d50001e00be004cff07000200200003f8230025
:100d60002cfe0700cffe070000007800cf80de00d9
:100d7000edfe0700020025006356240026fe070052
:100d8000c8fe0700200798002e0090003e003700a4
:100d900018c0b30002002000433324001e08900056
:100da000ae089000bdfe07000000e00001003c001e
:100db0000044eb000804e0001700320000002000af
:100dc000a14f24003007980041079800a2702d0021
:100dd000b30e24003e009000ce0090002aff0700d2
:100de0000200200003f823000afe0700adfe070002
:100df00000007800cf80de00cbfe07000200250057
:100e00006356240004fe0700a6fe07005007980062
:100e10005e0090001c00370002002000a34f240059
:100e20001e089000ae08900017ff070082fd20000a
:100e30009304240055fe070060079800710798008e
:100e4000a2702d00b30e24006e009000fe009000f2
:100e50000dff07000200200003f82300edfd07004e
:100e600090fe070000007800cf80de00aefe070095
:100e70000200250063562400e7fd070089fe0700f5
:100e8000000f98000e0890004f0478000080fa00d0
:100e9000000006000600fa00200798002e009000cf
:100ea0008000eb00a3fe07003233230033e323006e
:100eb000f5fe0700008fbe001e00be0079fe070091
:100ec000000078000080fa00000006001400fa001c
:100ed000100f98001e0890000000e0001d003d006b
:100ee0001e089000cf80de008ffe07000200200069
:100ef000a34f2400e4fe0700020020004333240037
:100f000022fe070001f0a200008fbe00a2702d009b
:100f1000b30e24001e00be00dbfe0700020020000e
:100f200003f82300bbfd07005efe07000000780009
:100f3000cf80de007cfe07000200250063562400ff
:100f4000b5fd070057fe0700200798002e0090000f
:100f5000380037009e089000400b2000808f500022
:100f60001700340000002000a14f24003007980033
:100f700041079800a2702d00b30e24003e0090009f
:100f8000ce009000c0fe07000200200003f82300fe
:100f9000a0fd070043fe070000007800cf80de00c0
:100fa00061fe070002002500635624009afd070039
:100fb0003cfe0700500798005e0090001d003700bf
:100fc0001e089000cf80de0057fe070002002000c0
:100fd000a34f2400acfe070002002000433324008e
:100fe000eafd07006007980071079800a2702d00c5
:100ff000b30e24006e009000fe009000a2fe0700d9
:101000000200200003f8230082fd070025fe0700f0
:1010100000007800cf80de0043fe070002002500bc
:10102000635624007cfd07001efe0700000f980099
:101030000e0890000080fa00000006000c00fa0084
:10104000008fbe00220798003307980044079800dd
:10105000550798001e00be0012fe07000000780031
:101060009aff0700b00e8800b00e8000200e8800a6
:101070002e009000be0090000afe070000007800dd
:1010800092ff0700c00e8800c00e8000200e88006e
:101090004e009000de00900002fe07000000780085
:1010a0008aff0700d00e8800d00e8000200e880036
:1010b0000080fa00000006000000fa00100007009f
:1010c0006022b8006011b8006000b800dbff0700c4
:1010d00080a82300810320003800070004002000be
:1010e000452b24006011b8006000b800d3ff070052
:1010f00080a823008103200030000700f0ff3700a4
:101100000000fa00c9e2a900c9a2a900c962a900a9
:101110002c23a9002143a90001198000f0cf2f0042
:10112000008060000019880011198000f0ff210084
:10113000008060001019880020c0b30024e3b700cd
:101140004119800000fe2f00008060000000a00018
:101150004019880021e3a800010e800030ff2f0015
:1011600000806000000e8800010e8000c0ff2f008c
:1011700000806000000e880040e62000200e8800fd
:10118000c801a800c901a80040e62000b00e8800f0
:10119000c821a800c921a80040e62000c00e880090
:1011a000c841a800c941a80040e62000d00e880030
:0c11b000c1e1a8000080fa000000060069
:020000040000fa
:1011bc00f03fb1000180b10006003500ee030900dc
:1011cc0000000000403fb1000180b100fbff3d007a
:1011dc001000b000203fb000020035000080090074
:0811ec000000000000000600f5
:020000040000fa
:1011f40000080000020000000000000000000000e1
:020000040000fa
:0c1204000000fa000080fa000000060064
:020000040000fa
:0200000401f009
:04000000ffff0000fe
:020000040000fa
:0200000401f009
:04000400ffff0000fa
:020000040000fa
:0200000401f009
:04000800ffff0000f6
:020000040000fa
:0200000401f009
:04000c008700000069
:020000040000fa
:0200000401f009
:04001000a700000045
:020000040000fa
:0200000401f009
:04001400df00000009
:020000040000fa
:0200000401f009
:04001800f7000000ed
:020000040000fa
:0200000401f009
:04001c00dfff000002
:00000001FF
