:020000040000fa
:080000000002040000000000f2
:020000040000fa
:040008000c030000e5
:020000040000fa
:04000c00d00200001e
:020000040000fa
:04001000d602000014
:020000040000fa
:04001400dc0200000a
:020000040000fa
:04001800e202000000
:020000040000fa
:04001c00e8020000f6
:020000040000fa
:040020000c030000cd
:020000040000fa
:040024000c030000c9
:020000040000fa
:040028000c030000c5
:020000040000fa
:04002c000c030000c1
:020000040000fa
:040030000c030000bd
:020000040000fa
:040034000c030000b9
:020000040000fa
:040038000c030000b5
:020000040000fa
:04003c000c030000b1
:020000040000fa
:040040000c030000ad
:020000040000fa
:040044000c030000a9
:020000040000fa
:040048000c030000a5
:020000040000fa
:04004c000c030000a1
:020000040000fa
:040050000c0300009d
:020000040000fa
:040054000c03000099
:020000040000fa
:040058000c03000095
:020000040000fa
:04005c000c03000091
:020000040000fa
:040060000c0300008d
:020000040000fa
:040064000c03000089
:020000040000fa
:040068000c03000085
:020000040000fa
:04006c000c03000081
:020000040000fa
:040070000c0300007d
:020000040000fa
:040074000c03000079
:020000040000fa
:040078000c03000075
:020000040000fa
:04007c000c03000071
:020000040000fa
:040080000c0300006d
:020000040000fa
:040084000c03000069
:020000040000fa
:040088000c03000065
:020000040000fa
:04008c000c03000061
:020000040000fa
:040090000c0300005d
:020000040000fa
:040094000c03000059
:020000040000fa
:040098000c03000055
:020000040000fa
:04009c000c03000051
:020000040000fa
:0400a0000c0300004d
:020000040000fa
:0400a4000c03000049
:020000040000fa
:0400a8000c03000045
:020000040000fa
:0400ac000c03000041
:020000040000fa
:0400b0000c0300003d
:020000040000fa
:0400b4000c03000039
:020000040000fa
:0400b8000c03000035
:020000040000fa
:0400bc000c03000031
:020000040000fa
:0400c0000c0300002d
:020000040000fa
:0400c4000c03000029
:020000040000fa
:0400c8000c03000025
:020000040000fa
:0400cc000c03000021
:020000040000fa
:0400d0000c0300001d
:020000040000fa
:0400d4000c03000019
:020000040000fa
:0400d8000c03000015
:020000040000fa
:0400dc000c03000011
:020000040000fa
:0400e0000c0300000d
:020000040000fa
:0400e4000c03000009
:020000040000fa
:0400e8000c03000005
:020000040000fa
:0400ec000c03000001
:020000040000fa
:0400f0000c030000fd
:020000040000fa
:0400f4000c030000f9
:020000040000fa
:0400f8000c030000f5
:020000040000fa
:0400fc000c030000f1
:020000040000fa
:040100000c030000ec
:020000040000fa
:040104000c030000e8
:020000040000fa
:040108000c030000e4
:020000040000fa
:04010c000c030000e0
:020000040000fa
:040110000c030000dc
:020000040000fa
:040114000c030000d8
:020000040000fa
:040118000c030000d4
:020000040000fa
:04011c000c030000d0
:020000040000fa
:040120000c030000cc
:020000040000fa
:040124000c030000c8
:020000040000fa
:040128000c030000c4
:020000040000fa
:04012c000c030000c0
:020000040000fa
:040130000c030000bc
:020000040000fa
:040134000c030000b8
:020000040000fa
:040138000c030000b4
:020000040000fa
:04013c000c030000b0
:020000040000fa
:040140000c030000ac
:020000040000fa
:040144000c030000a8
:020000040000fa
:040148000c030000a4
:020000040000fa
:04014c000c030000a0
:020000040000fa
:040150000c0300009c
:020000040000fa
:040154000c03000098
:020000040000fa
:040158000c03000094
:020000040000fa
:04015c000c03000090
:020000040000fa
:040160000c0300008c
:020000040000fa
:040164000c03000088
:020000040000fa
:040208000c030000e3
:020000040000fa
:04020c00ee020000fe
:020000040000fa
:04021000f4020000f4
:020000040000fa
:04021400fa020000ea
:020000040000fa
:0402180000030000df
:020000040000fa
:04021c0006030000d5
:020000040000fa
:040220000c030000cb
:020000040000fa
:040224000c030000c7
:020000040000fa
:040228000c030000c3
:020000040000fa
:04022c000c030000bf
:020000040000fa
:040230000c030000bb
:020000040000fa
:040234000c030000b7
:020000040000fa
:040238000c030000b3
:020000040000fa
:04023c000c030000af
:020000040000fa
:040240000c030000ab
:020000040000fa
:040244000c030000a7
:020000040000fa
:040248000c030000a3
:020000040000fa
:04024c000c0300009f
:020000040000fa
:040250000c0300009b
:020000040000fa
:040254000c03000097
:020000040000fa
:040258000c03000093
:020000040000fa
:04025c000c0300008f
:020000040000fa
:040260000c0300008b
:020000040000fa
:040264000c03000087
:020000040000fa
:040268000c03000083
:020000040000fa
:04026c000c0300007f
:020000040000fa
:040270000c0300007b
:020000040000fa
:040274000c03000077
:020000040000fa
:040278000c03000073
:020000040000fa
:04027c000c0300006f
:020000040000fa
:040280000c0300006b
:020000040000fa
:040284000c03000067
:020000040000fa
:040288000c03000063
:020000040000fa
:04028c000c0300005f
:020000040000fa
:040290000c0300005b
:020000040000fa
:040294000c03000057
:020000040000fa
:040298000c03000053
:020000040000fa
:04029c000c0300004f
:020000040000fa
:0402a0000c0300004b
:020000040000fa
:0402a4000c03000047
:020000040000fa
:0402a8000c03000043
:020000040000fa
:0402ac000c0300003f
:020000040000fa
:0402b0000c0300003b
:020000040000fa
:0402b4000c03000037
:020000040000fa
:0402b8000c03000033
:020000040000fa
:0402bc000c0300002f
:020000040000fa
:0402c0000c0300002b
:020000040000fa
:0402c4000c03000027
:020000040000fa
:0402c8000c03000023
:020000040000fa
:0402cc000c0300001f
:020000040000fa
:0402d0000c0300001b
:020000040000fa
:0402d4000c03000017
:020000040000fa
:0402d8000c03000013
:020000040000fa
:0402dc000c0300000f
:020000040000fa
:0402e0000c0300000b
:020000040000fa
:0402e4000c03000007
:020000040000fa
:0402e8000c03000003
:020000040000fa
:0402ec000c030000ff
:020000040000fa
:0402f0000c030000fb
:020000040000fa
:0402f4000c030000f7
:020000040000fa
:0402f8000c030000f3
:020000040000fa
:0402fc000c030000ef
:020000040000fa
:040300000c030000ea
:020000040000fa
:040304000c030000e6
:020000040000fa
:040308000c030000e2
:020000040000fa
:04030c000c030000de
:020000040000fa
:040310000c030000da
:020000040000fa
:040314000c030000d6
:020000040000fa
:040318000c030000d2
:020000040000fa
:04031c000c030000ce
:020000040000fa
:040320000c030000ca
:020000040000fa
:040324000c030000c6
:020000040000fa
:040328000c030000c2
:020000040000fa
:04032c000c030000be
:020000040000fa
:040330000c030000ba
:020000040000fa
:040334000c030000b6
:020000040000fa
:040338000c030000b2
:020000040000fa
:04033c000c030000ae
:020000040000fa
:040340000c030000aa
:020000040000fa
:040344000c030000a6
:020000040000fa
:040348000c030000a2
:020000040000fa
:04034c000c0300009e
:020000040000fa
:040350000c0300009a
:020000040000fa
:040354000c03000096
:020000040000fa
:040358000c03000092
:020000040000fa
:04035c000c0300008e
:020000040000fa
:040360000c0300008a
:020000040000fa
:040364000c03000086
:020000040000fa
:100400006f8920000e7f24000e018800000000008c
:10041000000020000000e000020032000001200087
:100420002002880014000700f20007000000e0002e
:1004300003003a00e0032100010020000200370021
:100440000000200001002000810f70000100320038
:1004500014000700000020000000e000020032004d
:100460000000020000000000200f02000000000059
:100470000040da000000fe004440a90060012000b6
:100480000000e0000300320000002000a00188000e
:100490004440a800000006008a1f78008b1f7800e7
:1004a0000000060091018800800478000000eb0045
:1004b0001a003700e284440032a0b4009905ba0063
:1004c000e284440032a0b4009906ba00e2844400f9
:1004d00032a0b4000006eb00476fde00fd07b2005b
:1004e000636ce10003003a00ebff07000000eb0043
:1004f0000a003700606ce10004003a00005deb0088
:100500008b05e900fdff3e00040037006168e10053
:10051000010032000086eb000b00070019c7ba008b
:100520001905ba000e04e00003003a000a00e000da
:10053000e0ff3a0000000600fe07b2009e018800be
:100540008a047800f5ff3700395dba008b05e900b1
:100550000c003200295dba008b05e900080032006a
:100560000c00e00003003a00e284440032a0b40032
:10057000f5ff370019ddba008b05e900faff3a00f4
:100580008904e800e184440032a0b40000000600c1
:100590001e0a04000000000000000400000000002b
:1005a0000000fa008020a900ffff37000000fa00d9
:1005b0008060a900ffff37000000fa008040a9001a
:1005c000ffff37000000fa008080a900ffff37001e
:1005d0000000fa0080a0a900ffff37000000fa0029
:1005e0008020a900ffff37000000fa008060a9000a
:1005f000ffff37000000fa008040a900ffff37002e
:100600000000fa008080a900ffff37000000fa0018
:1006100080a0a900ffff37000000fa00ffff3700ad
:100620000a00fa0011002000b1bf9f00c0bf9f0068
:100630006a805700360407004fb897000080fa0020
:10064000000006000a00fa00e20f500034003e00ed
:1006500090448000e10f500003003200e20f500090
:1006600011003a000c003700032220000300e000d4
:1006700001003a000040da002002e20002003500ea
:100680002822ef0021e2a8002342ab000d003a002f
:100690002342a8000b003700032320000300e000e2
:1006a00001003a000040da003002e20002003500aa
:1006b0003822ef0031e2a8003342ab0001003a00db
:1006c0003342a800820178000b0037003102fb00a2
:1006d000e10f500004003a002322ab00feff3a0075
:1006e00024118800030037003322ab00feff3a00dc
:1006f000a41188008301e9000300e000f3ff3a0041
:10070000e10f500003003a002302ab00feff32006d
:100710000b0037003302ab00feff32000800370049
:1007200033002000b3bf9f00c0bf9f00d1bf9f0018
:10073000e2bf9f006a805700f70307006fb9970078
:10074000020078000080fa00000006000a00fa00ab
:1007500051002000b1bf9f00c0bf9f006a805700ba
:10076000ef0307005fb897000080fa000000060062
:10077000889fbe0080047800a04480000000e00054
:1007800004003a000e0007000084eb000000e000c7
:1007900008003500a84480000900e0000500320090
:1007a00009004400060007000000e00001003d00d1
:1007b0000084eb00080078004f04be000000060033
:1007c000800078000100e00003003a0000002000f3
:1007d000a0448800000005000080eb00020020001b
:1007e000828f500002003e00a14488000000eb0010
:1007f000000006000000050003f0a200889fbe0074
:100800008a9fbe008c1f780000010700070133009b
:100810006450e1004f0032006420e10052003200d9
:1008200003826c0007003b000905d0000306d000de
:10083000820f54000c065d000200390002003200f5
:1008400089017800030678008582550004003d0088
:100850000003fd008103fd008502ea008b85420054
:10086000840f720002003b0060001000e08018005e
:100870006011b8000005eb007a28e1000a00390099
:1008800006007800c75ddd00f707b20087807500bd
:100890002d003700828171000a0178006105600037
:1008a0008180d1000080d3008502e900f9ff3b0080
:1008b000060440008784480002003b0060041400e6
:1008c000e0841c000988a300070032008a817100bf
:1008d00082817100610164008904d1000884d30021
:1008e0008b05e800170037000978a30013003a00d1
:1008f0000b00e000130034008b05e90008044400fd
:1009000089844c000a4474000978a3000d003a0061
:100910000b00e000070034008b05e90008044400e8
:1009200089844c0001003a000b0020000978a300e4
:10093000f7ff32000001eb000200370082817100f6
:100940000a017800760007000cf0a70001f0a00073
:10095000bf0037006420e10002003a00838f6c0082
:10096000bf0033000801be000200be00b80037001f
:10097000889fbe008a9fbe008c1f7800a3000700de
:10098000aa00330003866c006450e1002e003200a0
:100990006420e100330032006150e1002f0032009a
:1009a0006120e1003100320085855500eb07b00081
:1009b0000900200008042000050037000804440056
:1009c00089844c000a0031000603430087834b00f2
:1009d0000001530081815b00f8ff33000203be0079
:1009e0000800a0000804440089844c00f6ff390088
:1009f000c639dd00830173000100320013002000be
:100a00008904d1000884d3000998a30005003200ae
:100a10000800a7000300a0008904d1000884d300c7
:100a20008b05e8008904d1000884d3000001eb00a5
:100a30000281d2003a00070001f0a1000cf0a700eb
:100a400001f0a000820037006420e1008400320041
:100a50000801be000200be00f7ff37006120e10080
:100a60007f0032006000b800f3ff37000000200074
:100a700001f82700f0ff370014002000af00370016
:100a8000f4ff2f00ad0037000001be004a00070050
:100a90000470a70003f0a1006509b1001600320040
:100aa0000d0035006828e10006003500f0ff2f003a
:100ab000f1ff27000300e00013003b0001002800c5
:100ac0000000050000004000818048008502e90028
:100ad000fcff3a0008003700f88f420002003c009b
:100ae0008000eb00000005008100d1000080d300f1
:100af0008502e800fcff3a000300e00002003b0032
:100b000060001000e0801800000006004f89de0041
:100b100082017800a40037006011b800b2003700ed
:100b200081002000618055000b003d000b0020007b
:100b300061fe2f000100e1001d0034008281710080
:100b4000610164008904d1000884d3000000e8003a
:100b5000faff3a0071002000610064000300700099
:100b6000020060000900320061044400e0844c008f
:100b70000988a500050032008b05e8006808e1003f
:100b800002003a008904d1000884d300f20f20004b
:100b90000258e10005003d00c75ddd00f907b20025
:100ba0008980750008007800000006000bf8270017
:100bb0008b00780000000500c70ade00f107b200d4
:100bc000f50fb20008003200e1cf4200020032000f
:100bd0000170a00024000500810f700001003200a8
:100be0000408050044000500810f700002003a006f
:100bf000140005008502e9000000400081c04800a3
:100c0000fcff3b000170a000240005000004be00b2
:100c1000e9ff07000003be000405be000200be009d
:100c2000e5ff0700844f7500000006000200be00cb
:100c30006450e100050036006420e1000200360047
:100c40000968a30001003a000800be000160a0008e
:100c50004f0678004f05be004f04be00000006009e
:100c6000f0ff2f00f1ff2700f9ff3700889fbe003b
:100c70008a9fbe008c1f7800e4ff0700ebff330063
:100c800003866c006450e100240032006420e1001f
:100c9000270032006150e100220032006120e100b3
:100ca000210032008b854200eb07b1000134b8000f
:100cb000003ab8000804420089844a00013ab800aa
:100cc0000030b8008880400009014a000400330069
:100cd0000000400081804800020149008b05e900c6
:100ce000c909dd00830170000100320013002000fb
:100cf000c814de004814dd004709de001200b2000f
:100d0000c808de000884700085ff070001f0a1001c
:100d10000cf0a70001f0a000cdff37006120e1003a
:100d2000cfff32000801be000200be00f7ff37000f
:100d30006150e100fcff3a00c9ff3700889fbe0008
:100d40008a9fbe00841f7800b0ff07004f00780024
:100d500011003300f0ff2f00838f6c0006003b0072
:100d6000040565000a00a7000800370009f0a60086
:100d70001000200008003700820f5400838f5c00b1
:100d8000030039001000200001003e000000200098
:100d900009f0a7000000ea004f05be004f04be00a6
:100da0000000e00000000600881f780003047800bf
:100db0000300e00007003d0060001000e080180024
:100dc00060011900e081190002003b0001f02d00d4
:100dd000030037000400070008f0a70001f0a0009e
:100de0004f04780000000600889fbe008a9fbe0066
:100df000008270000402710004827100260032003b
:100e00000004be000200be006011b8006b092000a3
:100e1000950220000182cf000a0039000541b1008f
:100e20000082cf00070039000541b1000982cf00e0
:100e3000040039000541b1000882cf0001003900eb
:100e40000541b10005425200120032000a003b0089
:100e500082817100610164008100d1000080d300b3
:100e60008984d3000884d3008b05e8000442e8009d
:100e7000f7ff3a00070037000804440089844c005b
:100e800000004800818048008b05e9000442e90029
:100e9000f9ff3a0022ff07004f05be004f04be00d5
:100ea00000000600a18220006b000700800078008f
:100eb0000080eb000100e00004003500a18220006a
:100ec000a0002000020007004f80de0000000600a6
:100ed000889fbe008a1f78000004be00c9009000f1
:100ee00069009000808f50000600390009007800ea
:100ef000b8000700800078000080eb000100e000ef
:100f0000170035000845780049009000085878001f
:100f1000c00498001900780000b8a30004003a004b
:100f200000a8a30008003200ea4f540006003a006f
:100f3000090078000d000700800078000080eb00b9
:100f40000100e00006003a0000c020001900600027
:100f50000200320049009000e00498000a80fb0083
:100f60004f0578004f04be0000000600889fbe00b9
:100f70008a1f7800000478000800e0000d003a00a5
:100f800088872000700544008004eb00580078003a
:100f90000000e00004003200f4ff07000000e00061
:100fa00001003d008084eb008a0f5400f7ff3a00f7
:100fb0002500370000002200180060008004eb00cc
:100fc00021003200a80490000f00370009015100f1
:100fd000384090000000fb008900780099fd070070
:100fe0000000e00007003c0028009000400498004a
:100ff00060049800500c98001890a0008084eb00ca
:10100000110037008084440048019000828f540012
:10101000eeff390028009000400498009800780006
:1010200002c020000281600001003a0038009000f8
:1010300001e8a300020032006004980001003700bc
:10104000500c98008004eb00090078004f057800f0
:101050004f04be0000000600889fbe008a9fbe00ad
:1010600080047800010478002c003700c80090004c
:1010700068009000808f500004003900080078005c
:10108000540007000000e000370035000040200059
:101090001800600009003200a1002000090078005b
:1010a00042000700800578000b00e00003003200da
:1010b000618514000a8545000400370009007800a6
:1010c00034000700000578008005eb004800900020
:1010d000e8009000808050008a8f500002003100ac
:1010e000010578008005eb000a017800890078008e
:1010f00021000700480090000a00400040049800ca
:101100000b00e000040032000800780097ff0700a1
:101110000000e00014003a008a8444001904e00052
:10112000d2ff3a0000802000180060000600320064
:10113000080078008dff0700800078000080eb0039
:101140000100e00009003a0001c020009880600022
:101150000000eb0005003200480090006004980099
:101160000000eb00010037000080eb004f05be00df
:101170004f04be0000000600800178000200370026
:10118000b15978000201e9000200e000fcff3a00da
:101190000000060080007800010178003104e000c2
:1011a000fdff3a0000005100000006000001eb00c6
:1011b00000027800b041780081cf510001003a0070
:1011c000040178000304e000f9ff3a00020078000f
:1011d00000000600889fbe008a1f78000004780087
:1011e000c8009000680190000000eb00828f500062
:1011f0003c0039001800780022002900020160003c
:10120000e20f510007003200012024000000e0003e
:1012100001003d0001202000008c70000080eb00e8
:10122000300037000200260002006000820f5000ec
:1012300009003a0038009000808f50000600390005
:101240000800780049ff0700800078000080eb006c
:101250000100e00023003a001805780000c02000db
:101260000000650018003a00a80490006002200009
:1012700008004000808f540013003a000020200036
:10128000ef000700200498000000e00005003a008d
:1012900029049800490498008904e800390498005a
:1012a000080037000a60a0000a0c7800400498008b
:1012b000012020008080400031049800400c9800fc
:1012c000500c98000c000700280090005004980073
:1012d000380090006004980000002600180c700090
:1012e0000000eb004f0578004f04be000000060030
:1012f000e0a1200061003700881f7800e888200006
:101300001804e00003003a00f9ff070020c0b30012
:10131000004c78004f04780000000600889fbe0053
:10132000000478000800780010ff070080047800af
:101330000004200018006000020032002800900025
:101340005a0007000000eb0020049800384090008d
:101350000004e000050035000000fb00b0fc0700c1
:101360000000e000010032008084eb0018109000c3
:101370000000e00008003200f4fc07000000e0007c
:10138000010032008084eb00181090004700070035
:101390000000eb0010149800000820001800600006
:1013a000150032000001eb006000b800a3872000a8
:1013b0000202d00063027a00880f520005003a0052
:1013c0000000400081804800008041000008eb00e0
:1013d0000600370061004000e08048000201e8009c
:1013e000e80f5000e08f5800f0ff3a000800780046
:1013f0002e0007000e003700000c780000c0eb0044
:10140000304498006002200008004000200498004a
:101410004004980050049800400c98006004980024
:10142000500c98007004980076004400000c98005e
:10143000090078004f04be0000000600881f7800f5
:101440000004eb006140b800e2ff2f00f3ff2f0023
:10145000b500070082882000620078000000e000ec
:1014600001003200adff07000804e800e80f540057
:10147000f4ff3a004f04780000000600010020004d
:101480000100e00008003200010080000100e000df
:10149000050032008100e900010088008100d000d1
:1014a0000200800000b17800000006000000e000ab
:1014b0002f003200c0017800e38f51002c0036006d
:1014c0000308a3002a003a00614480000100e00004
:1014d00002003200810f500004003100110098001a
:1014e00060448800160037008200780011019000e7
:1014f0000200e00002003200800f5100faff3900c4
:101500001102780084824000850f500018003900d5
:10151000808f520003003a008308420001007800e7
:10152000070037000200e0000300320083014000a2
:10153000830f51000e0039001200980090009800af
:10154000900090000100e00009003200100140000e
:10155000828f500006003a00a28820000009eb00ac
:1015600010017800110841009100900011009800ce
:1015700000000600889fbe000004780051448000ef
:101580000100e00002003200010078000d00370089
:1015900061448000c088200004003700910f54008f
:1015a000250036000180e800910090000100e00075
:1015b000faff3a0010003700920f54001e00360068
:1015c0000280e800100178000200e000faff3a0013
:1015d0001101780061448000c088200004003700b9
:1015e000910f5400140036000180e8009100900033
:1015f000828f5000faff3a0089448000888f54009f
:1016000001003100880478000900780036000700e6
:101610000000e00004003a00888f5400050032000a
:101620008904d100f5ff3700091878009fff0700f3
:10163000d2ff37000000eb004f04be0000000600a0
:10164000881f7800630440000800a1008000eb00c0
:10165000800f540021003600e30f540001003e00cb
:101660004800200008007800c2ff07008000eb005f
:101670000000e0001900320090007800910178002d
:1016800064815100880f5100030031001101900066
:10169000020878000700370008814000020878003f
:1016a00091019000130198001001780011091400b5
:1016b00088087800100178000000eb000200e000cc
:1016c00004003200920190000300e00001003200ab
:1016d0000280e800504488008180e8000100780022
:1016e0004f04780000000600800078000000eb0046
:1016f0000100e00005003400010078001cfc070038
:10170000e10f400001003a000000eb00000006007d
:1017100000c0da000000060000c0da000000060089
:1017200000c0da0000000600020ab900001bb90080
:101730000200b80081004200810043000000060062
:020000040000fa
:10174000496e0000766100006c69000064200000b2
:1017500073650000727600006f2000006e75000057
:0c1760006d620000657200002e000000a9
:020000040000fa
:10176c000000fa002023a8000000000000198000ef
:10177c00610060000000e000fcff320000188000f7
:10178c000080fa00000006000600fa00200798000e
:10179c002e0090008000eb00dcfc070032332300ad
:1017ac0033e323002efd0700008fbe001e00be0099
:1017bc00b2fc0700000078000080fa000000060070
:1017cc001400fa00100f98001e0890000000e000b2
:1017dc001d003d001e089000cf80de00c8fc0700f5
:1017ec0002002000a34f24001dfd07000200200072
:1017fc00433324005bfc070001f0a200008fbe0005
:10180c00a2702d00b30e24001e00be0014fd0700b4
:10181c000200200003f82300f4fb070097fc0700ec
:10182c0000007800cf80de00b5fc07000200250028
:10183c0063562400eefb070090fc0700200798007d
:10184c002e009000380037009e089000400b2000be
:10185c00808f50001700340000002000a14f24009e
:10186c003007980041079800a2702d00b30e240099
:10187c003e009000ce009000f9fc07000200200012
:10188c0003f82300d9fb07007cfc0700000078005c
:10189c00cf80de009afc070002002500635624006e
:1018ac00d3fb070075fc0700500798005e00900002
:1018bc001d0037001e089000cf80de0090fc070052
:1018cc0002002000a34f2400e5fc070002002000ca
:1018dc004333240023fc070060079800710798002d
:1018ec00a2702d00b30e24006e009000fe0090003c
:1018fc00dbfc07000200200003f82300bbfb070001
:10190c005efc070000007800cf80de007cfc070046
:10191c000200250063562400b5fb070057fc0700a6
:10192c00000f98000e0890000080fa0000000600de
:10193c000600fa00000f78001207980023079800a1
:10194c001e007800e10f500009003a001e009000c4
:10195c00ae00900049fc07000000780098ff0700db
:10196c00b00e8800b00e8000200e88001a003700e0
:10197c001e007800e20f500009003a001e00900093
:10198c00ae0090003dfc0700000078008cff0700c3
:10199c00c00e8800c00e8000200e88000e0037009c
:1019ac001e007800e30f500009003a001e00900062
:1019bc00ae00900031fc07000000780080ff0700ab
:1019cc00d00e8800d00e8000200e88000200370058
:1019dc0000ba280030fd07000080fa000000060065
:1019ec000c00fa00000f78001107980022079800ed
:1019fc003307980044079800550798001e0078009c
:101a0c006fff0700b00e8800b00e8000200e88001b
:101a1c001e0090006aff0700c00e8800c00e8000f8
:101a2c00200e88002e00900065ff0700d00e880065
:101a3c00d00e8000200e8800140037003e0090006d
:101a4c009e007800808f5000070034001e0fe900c4
:101a5c001e0078005aff0700b00e8800b00e800000
:101a6c00200e8800060037001e0fe8001e007800cc
:101a7c0053ff0700b00e8800b00e8000200e8800c7
:101a8c00a0fb2c0021002000ed0107003e0090007f
:101a9c009e007800808f5000e8ff3a001800370055
:101aac009e0090004e009000808f50000900340082
:101abc001e0090000000e900100798001e00900026
:101acc003fff0700c00e8800c00e8000200e88006b
:101adc00080037001e0090000000e8001007980076
:101aec001e00900036ff0700c00e8800c00e80005c
:101afc00200e8800d07d260011002000d0010700a8
:101b0c009e0090004e009000808f5000e4ff3a0041
:101b1c0018003700ae0090005e009000808f5000df
:101b2c00090034002e0090000000e9002007980006
:101b3c002e00900022ff0700d00e8800d00e8000ef
:101b4c00200e8800080037002e0090000000e800ee
:101b5c00200798002e00900019ff0700d00e880077
:101b6c00d00e8000200e8800d07d260011002000b1
:101b7c00b3010700ae0090005e009000808f500013
:101b8c00e4ff3a000080fa00000006001600fa009c
:101b9c00881f7800100f9800210f980018c0b30010
:101bac006011b8001e089000ae089000affb070053
:101bbc000000e000010035000044eb000804e000e8
:101bcc001c00320002002000a34f24001e089000cd
:101bdc00ae08900022fc070082fd20009304240034
:101bec0060fb070001f0a200008fbe00a2702d0068
:101bfc00b30e24001e00be0019fc070002002000da
:101c0c0003f82300f9fa07009cfb0700000078009a
:101c1c00cf80de00bafb07000200250063562400cb
:101c2c00f3fa070095fb0700200798002e009000a0
:101c3c003e00370018c0b3000200200043332400dc
:101c4c001e089000ae0890008afb07000000e00020
:101c5c0001003c000044eb000804e00017003200d7
:101c6c0000002000a14f2400300798004107980085
:101c7c00a2702d00b30e24003e009000ce00900008
:101c8c00f7fb07000200200003f82300d7fa070037
:101c9c007afb070000007800cf80de0098fb07007d
:101cac000200250063562400d1fa070073fb0700dd
:101cbc00500798005e0090001c00370002002000c6
:101ccc00a34f24001e089000ae089000e4fb070010
:101cdc0082fd20009304240022fb0700600798007b
:101cec0071079800a2702d00b30e24006e009000b6
:101cfc00fe009000dafb07000200200003f823002e
:101d0c00bafa07005dfb070000007800cf80de0008
:101d1c007bfb07000200250063562400b4fa070081
:101d2c0056fb0700000f98000e0890004f04780037
:101d3c000080fa00000006000600fa00000f780090
:101d4c0012079800230798001e007800e10f50003e
:101d5c0007003a001e009000ae0090008bff0700b9
:101d6c00b00e8800b00e8000200e880016003700e0
:101d7c001e007800e20f500007003a001e00900091
:101d8c00ae00900081ff0700c00e8800c00e8000de
:101d9c00200e88000c0037001e007800e30f500066
:101dac0007003a001e009000ae00900077ff07007d
:101dbc00d00e8800d00e8000200e88000200370064
:101dcc0000ba280034fc07000080fa00000006006e
:101ddc000c00fa00008fbe00220798003307980011
:101dec0044079800550798001e00be0067ff0700c7
:101dfc00b00e8800b00e8000200e88002e009000df
:101e0c00be00900061ff0700c00e8800c00e80006d
:101e1c00200e88004e009000de0090005bff070053
:101e2c00d00e8800d00e8000200e88000080fa00b2
:101e3c00000006000000fa00d30007000051270044
:101e4c0001072000fe000700a5052000a4052000c6
:101e5c0063092000a2052000a1052000a005200098
:101e6c00dffe070080a8230081032000f400070098
:101e7c00a5052000a4052000a3052000a205200034
:101e8c00a105200060092000d5fe070080a82300d2
:101e9c0081032000ea000700a5052000240820008b
:101eac00a3052000a2052000a1052000a00520000c
:101ebc00cbfe070080a8230081032000e000070070
:101ecc00a5052000a4052000a3052000a2052000e4
:101edc0021082000a0052000c1fe070080a82300d7
:101eec0081032000d6000700a5052000e401200096
:101efc00a3052000a2052000a1052000a0052000bc
:101f0c00b7fe070080a8230081032000cc00070047
:101f1c00a5052000a4052000a3052000a205200093
:101f2c00e1012000a0052000adfe070080a82300e1
:101f3c0081032000c2000700050a2000a405200030
:101f4c00a3052000a2052000a1052000a00520006b
:101f5c00a3fe070080a8230081032000b80007001f
:101f6c00a5052000a4052000a3052000020a2000de
:101f7c00a1052000a005200099fe070080a82300e1
:101f8c0081032000ae00070025032000a4052000db
:101f9c00a3052000a2052000a1052000a00520001b
:101fac008ffe070080a8230081032000a4000700f7
:101fbc00a5052000a4052000a30520002203200075
:101fcc00a1052000a005200085fe07000051270078
:101fdc00010720009a000700250320008407200039
:101fec0003052000a2052000a1052000a00520006b
:101ffc007bfe070080a823008103200090000700cf
:10200c00c5032000a40520000305200022032000a6
:10201c00810720000005200071fe070080a8230026
:10202c008103200086000700a5052000c4032000c2
:10203c00a3052000c2032000a105200000052000fc
:10204c0067fe070080a82300810320007c000700a6
:10205c00a5052000a4052000a3052000a205200052
:10206c00c1032000a00520005dfe070073ff3700b0
:020000040000fa
:10207c000008000002000000000000000208000040
:10208c008800000002000000010000000028080089
:10209c002908280008280800280828000818080023
:1020ac000000000000000000000000000000000024
:1020bc00000000000000000000000000000208000a
:1020cc000101500008510800500850000850080049
:1020dc005008400008000000000000000000000054
:1020ec0000000000000000000000000000000000e4
:1020fc000000020008020200780879000878080045
:10210c0078087800087808006808000000000000d3
:10211c0000000000000000000000000000000000b3
:10212c00000000000000000002082a00085208000d
:10213c000000000000000000000000000000000093
:10214c008e08000002000000000000009008000053
:10215c000200000002000000040000008a080000d9
:10216c0004000000000000009208000002000000c3
:10217c0002000000010000009408000002000000b2
:08218c0000000000000000004b
:020000040000fa
:102194000000fa00c9e2a900c9a2a900c962a90005
:1021a4002c23a9002143a90001198000f0cf2f009e
:1021b400008060000019880011198000f0ff2100e0
:1021c400008060001019880020c0b30024e3b70029
:1021d4004119800000fe2f00008060004019880033
:1021e40021e3a800010e800030ff2f000080600072
:1021f400000e8800010e8000c0ff2f0000806000e8
:10220400000e8800e0b22200200e8800c801a80059
:10221400c901a800e0b22200b00e8800c821a800bd
:10222400c921a800e0b22200c00e8800c841a8005d
:10223400c941a800e0b22200d00e8800c1e1a80084
:082244000080fa000000060012
:020000040000fa
:10224c00f03fb1000180b10006003500ee0309003b
:10225c0000000000403fb1000180b100fbff3d00d9
:10226c001000b000203fb0000200350000800900d3
:08227c00000000000000060054
:020000040000fa
:0c2284000000fa000080fa0000000600d4
:020000040000fa
:0200000401f009
:04000000ffff0000fe
:020000040000fa
:0200000401f009
:04000400ffff0000fa
:020000040000fa
:0200000401f009
:04000800ffff0000f6
:020000040000fa
:0200000401f009
:04000c008700000069
:020000040000fa
:0200000401f009
:04001000a700000045
:020000040000fa
:0200000401f009
:04001400df00000009
:020000040000fa
:0200000401f009
:04001800f7000000ed
:020000040000fa
:0200000401f009
:04001c00dfff000002
:00000001FF
